S0110000656C6563547261696C2E737265637E
S1130000B020FF1F110400002104000085510000EE
S1130010210400002104000021040000000000006D
S113002000000000000000000000000021040000A7
S1130030210400000000000021040000210400004D
S1130040154F00002B4F0000414F0000574F000098
S11300506D4F0000834F0000994F0000AF4F000028
S1130060C54F0000DB4F0000F14F000007500000B7
S11300701D50000033500000495000005F50000044
S113008021040000210400002104000021040000D8
S113009021040000210400002104000021040000C8
S11300A01D53000077530000D54700007F4800002F
S11300B0294900003F4B0000474B00004F4B000014
S11300C05D4B0000674B0000714B0000734B000058
S11300D0754B0000774B00007F4B0000874B0000FE
S11300E0954B00009F4B0000C94B0000CB4B000018
S11300F0CD4B0000B732000021040000E7320000BD
S113010021040000173300002104000047330000DD
S1130110210400007733000021040000A73300000D
S11301202104000069260000732600002104000059
S11301302104000021040000750C0000810C000063
S11301408B0C000021040000515500000000000049
S11301502F3F0000453F00005B3F0000713F00005F
S113016065540000DD5600002104000031540000F5
S11301700B540000E5530000475400002104000024
S1130180210400002952000093520000E5540000AD
S1130190210400003556000021040000DD35000074
S11301A0EF3500000136000013360000253600004C
S11301B021040000210400002104000021040000A7
S11301C02104000021040000210400002104000097
S11301D02104000021040000210400002104000087
S11301E087510000875100008751000087510000AB
S113041001488047014800477D50000089150000CD
S113042004F0B1BE0FB410B584B00699DFF8E82724
S1130430914216D10024DFF8E417096851F0807165
S1130440DFF8D82711609DF81C10C90729D506A923
S113045084B068461C2200F059FC0FBC00F0CAF8B6
S113046048E00699DFF8B827914209D10124DFF862
S1130470AC17096851F00071DFF8A0271160E2E7BA
S11304800699DFF8A027914209D10224DFF89817D2
S1130490096851F08071DFF890271160D3E70020DC
S11304A03FE09DF81C10890709D506A984B0684669
S11304B01C2200F02BFC0FBC00F01AF91AE09DF886
S11304C01C10490709D506A984B068461C2200F00F
S11304D01DFC0FBC00F0ACFB0CE09DF81C100907E0
S11304E008D506A984B068461C2200F00FFC0FBC96
S11304F000F0BCFBC0B2012812D10C9900290FD026
S11305000C99DFF82827E4B242F824109DF82C1047
S1130510012905D10699096851F04001069A116034
S1130520C0B204B010BC5DF814FB70B582B0040016
S11305300D0016001A00D2B22900C9B2200000F042
S113054017F9002801D100201AE00698C0B2242827
S113055002D142F210718E1BA16800910099491CCE
S113056001FB06F142F21072B1FBF2F1C0B2EDB23E
S113057014EBC502D060EDB214EBC500016101209B
S113058076BD81B0C9B210EBC103DB685B0702D54D
S113059042F210739A1A83680093009B5B1C5A43BF
S11305A042F21073B2FBF3F2C9B210EBC100026164
S11305B0012001B07047406880B27047002141605B
S11305C0704738B5040015000A00D2B20821200093
S11305D000F0CEF8002801D100200AE02A00D2B2AF
S11305E00921200000F0C4F8002801D1002000E017
S11305F0012032BD0FB4F0B5079808999DF8242066
S11306009DF82530059CDFF88C562D68854201D273
S113061000206AE0802606FB00F6B5FBF6FC4FF6E8
S1130620FF76B44560D2072667465FF0400C0CFBAA
S113063000FCB5FBFCFC4FF6FF7EF4453BD20626DE
S113064067465FEA401CB5FBFCFC4FF6FF7EF445B1
S113065031D2052667465FEA001CB5FBFCFC4FF669
S1130660FF7EF44527D2042667465FEAC00CB5FB3B
S1130670FCFC4FF6FF7EF4451DD2032667465FEA75
S1130680800CB5FBFCFC4FF6FF7EF44513D202262A
S113069067465FEA400CB5FBFCFC4FF6FF7EF44571
S11306A009D201266746B5FBF0FC4FF6FF7084457E
S11306B001D20026674600202060002060600020F0
S11306C0E064A760D2B2900110F0C000DBB213F076
S11306D03F021043A0666166F6B216F0070050F0C0
S11306E008002060012000E00020F0BC5DF814FB4D
S11306F00FB49DF8132006980099C023C1F88430E4
S113070000230B6000234B600023CB6400238B6029
S11307107FF00103C1F8803000238B670B68D2B2ED
S113072012F0070252F008021A430A600A6832F013
S113073020020A600200002A09D0DFF8DC2491427A
S113074008D10021DFF8E424C9B242F821000120D5
S113075004B07047DFF8C824914201D10121F1E7C8
S1130760DFF8C024914201D10221EBE70020EFE73A
S1130770DFF82435984240F00681C9B200290FD031
S113078002294AD02BD3042900F0838063D306299D
S113079000F0BB80C0F09B80072900F0D480F0E01B
S11307A0D2B2032A0BD1DFF8F404006830F4E0601D
S11307B050F44070DFF8E414086001207047D2B2AE
S11307C0412A0AD1DFF8D804006830F4E06050F41C
S11307D08060DFF8CC140860EFE70020EEE7D2B2C7
S11307E0042A0AD1DFF8BC04006830F4E06050F455
S11307F04070DFF8B0140860DFE7D2B2422A0AD1B1
S1130800DFF8A404006830F4E06050F48060DFF89E
S113081098140860F0E70020D0E7D2B2052A0AD184
S1130820DFF88804006830F4E06050F44070DFF8CA
S11308307C140860C1E7D2B2432A0AD1DFF87004FD
S1130840006830F4E06050F48060DFF864140860FD
S1130850F0E70020B2E7D2B2062A0AD1DFF8540446
S1130860006830F4E06050F44070DFF84814086029
S1130870A3E7D2B2442A0AD1DFF83C04006830F47A
S1130880E06050F48060DFF830140860F0E7002086
S113089094E7D2B2072A0AD1DFF82004006830F4C2
S11308A0E06050F44070DFF81414086085E7D2B2B9
S11308B0642A0AD1DFF80804006830F4E06050F4D8
S11308C08060DFF8FC130860F0E7002076E7D2B21E
S11308D0002A0AD1DFF8EC03006830F4E06050F439
S11308E04070DFF8E013086067E7D2B2652A0AD1E6
S11308F0DFF8D403006830F4E06050F48060DFF87F
S1130900C8130860F0E7002058E7D2B2012A0AD1E0
S1130910DFF8B803006830F4E06050F44070DFF8AA
S1130920AC13086049E7D2B2662A0AD1DFF8A00303
S1130930006830F4E06050F48060DFF894130860DD
S1130940F0E700203AE7D2B2022A0AD1DFF88403A2
S1130950006830F4E06050F44070DFF87813086009
S11309602BE7D2B2672A0AD1DFF86C03006830F4AF
S1130970E06050F48060DFF860130860F0E7002066
S11309801CE700201AE7DFF85433984240F0B8809F
S1130990C9B2002907D0012931D008295BD009291F
S11309A000F083808EE0D2B2082A0AD1DFF8300347
S11309B0006830F4E06050F44070DFF824130860FD
S11309C0FBE6D2B20C2A0AD1DFF81803006830F42F
S11309D0E06050F44070DFF80C130860F0E7D2B226
S11309E0202A0AD1DFF80003006830F4E06050F4F4
S11309F04070DFF8F4120860E2E70020DEE6D2B2CD
S1130A00092A0AD1DFF8E402006830F4E06050F407
S1130A104070DFF8D8120860CFE6D2B20D2A0AD1AE
S1130A20DFF8CC02006830F4E06050F44070DFF886
S1130A30C0120860F0E7D2B2212A0AD1DFF8B4026A
S1130A40006830F4E06050F44070DFF8A8120860E9
S1130A50E2E70020B2E6D2B2082A0AD1DFF8800227
S1130A60006830F4E06050F4C060DFF8741208608D
S1130A70A3E6D2B20C2A08D1DFF86802006850F469
S1130A80E060DFF860120860F2E7D2B2202A0AD1EF
S1130A90DFF85402006830F4E06050F4C060DFF81E
S1130AA048120860E4E7002088E6D2B2092A0BD194
S1130AB0DFF83802006830F4E06050F4C060DFF81A
S1130AC02C120860002079E6D2B20D2A08D1DFF892
S1130AD02002006850F4E060DFF814120860F1E7C7
S1130AE0D2B2212A0AD1DFF80C02006830F4E060A7
S1130AF050F4C060DFF8FC110860E3E700205DE615
S1130B00484B984240F08480C9B2002906D001299C
S1130B1022D008293ED009295AD077E0D2B20A2A35
S1130B200AD1DFF8D401006830F4E06050F440707A
S1130B30DFF8C411086040E6D2B2322A0AD1DFF8E5
S1130B40BC01006830F4E06050F44070DFF8AC1190
S1130B500860F0E7002031E6D2B20B2A0AD1DFF8B0
S1130B60A001006830F4E06050F44070DFF89011A8
S1130B70086022E6D2B2332A0AD1DFF8880100687D
S1130B8030F4E06050F44070DFF878110860F0E76A
S1130B90002013E6D2B20A2A0AD1DFF85C01006809
S1130BA030F4E06050F4C060DFF84C11086004E6F3
S1130BB0D2B2322A0AD1DFF84401006830F4E0608E
S1130BC050F4C060DFF834110860F0E70020F5E568
S1130BD0D2B20B2A0AD1DFF82801006830F4E060B1
S1130BE050F4C060DFF818110860E6E5D2B2332A89
S1130BF00AD1DFF81001006830F4E06050F4C060FE
S1130C00DFF800110860F0E70020D7E50020D5E503
S1130C100020D3E500000000008003403C80044035
S1130C200090034000800B4030800440700EFF1F92
S1130C300FB49DF8120000994A6D52F001024A6502
S1130C400022CA6400224A604FF6FF728A60D1F81B
S1130C508020C0B21043C1F88000D1F8800050F069
S1130C600100C1F88000012004B070470FB40020D7
S1130C7004B0704780B524480068804701BD000077
S1130C8080B521484068804701BD80B51E48806812
S1130C90804701BD2804FF1F008003400C900440DE
S1130CA004B004401090044008B004401490044080
S1130CB00CB004401890044010B004401C90044050
S1130CC010C004400090044014C004400490044048
S1130CD018C00440089004401CC004400090034025
S1130CE0209004403090044000A00440249004402C
S1130CF03490044004A004402890044048A00440D8
S1130D002C9004404CA00440700EFF1F103A07D3EF
S1130D1030B4B1E83810103AA0E83810F9D230BC39
S1130D20530724BFB1E80810A0E8081044BF51F8E5
S1130D30043B40F8043BD20724BF31F8022B20F8CF
S1130D40022B44BF0B7803707047083A07D3B1E80D
S1130D500810083A40F8043B40F804CBF7D2530794
S1130D60E4E750F8041B61B150F8042BD30744BFE7
S1130D70A9F101039A18002342F8043B091FFAD190
S1130D80EFE7704700F00F4040F00F4080F00F4055
S1130D90C0F00F4000F10F40FFFFFFFFFFFFFFFF18
S1130DA0FFFFFFFFFFFFFFFF0A01339B0A01339B95
S1130DB00A01339B00E1F505C40FFF1F5265662E3F
S1130DC06C6566740000000000010000C80FFF1F7E
S1130DD05265662E726967687400000000010000A5
S1130DE0CC0FFF1F5265662E63656E74657200003A
S1130DF000010000D00FFF1F5265662E6C6F7365F3
S1130E000000000000010000D40FFF1F537065654F
S1130E10644B70000000000000010000D80FFF1FA9
S1130E2053706565644B6900000000000001000018
S1130E30DC0FFF1F53706565644B64000000000005
S1130E4000010000E00FFF1F42414E470000000078
S1130E5000000000000A0000E40FFF1F44757479CD
S1130E604D6178000000000000640000E80FFF1FDF
S1130E70447574794D696E00000000000064000040
S1130E80EC0FFF1F53706565644D6178000000002E
S1130E90000A0000F00FFF1F53706565644D696E12
S1130EA000000000000A0000F40FFF1F4B5F6C6598
S1130EB0667400000000000000010000F80FFF1F2E
S1130EC04B5F726967687400000000000001000055
S1130ED01010FF1F53746565724B70000000000012
S1130EE0000100001410FF1F53746565724B640009
S1130EF000000000000100000410FF1F536574741B
S1130F00696D650000000000000100000810FF1F6B
S1130F106F757474696D65000000000000010000C5
S1130F201810FF1F53746565724D4944000000009A
S1130F30000100001C10FF1F53746565724D415879
S1130F405455524E000100000C10FF1F54524143EF
S1130F504B5F414D50000000000100000000000004
S1130F60000000000000000000000000000000007D
S1130F70000000000000000000000000000000006D
S1130F80000000000000000000000000000000005D
S1130F90000000000000000000000000000000004D
S1131580000000000000000080B572B600F06CFBA3
S113159062B600F005F800F021F900F0E5FAF8E78A
S11315A080B5DFF858060068DFF854160978012979
S11315B006D004292FD005296CD006291CD0A9E017
S11315C0DFF8401609680029FAD0DFF830160968F8
S11315D0081AB0F5FA7F08D2DFF82C06007890F0EC
S11315E00100DFF82416087005E000F098F80120E7
S11315F0DFF8181608708DE0DFF814160968002962
S1131600FAD0DFF8F8150968081AB0F5FA7F01D3A3
S113161000F060FB7EE0DFF8FC1509680029FAD0D1
S1131620DFF8D8150968081AB0F5FA7F31D2DFF867
S1131630D8050078002814D0DFF8CC0540880028AD
S113164007D0DFF8C4054088401EDFF8BC15488089
S11316501FE0DFF8B4058088401EDFF8AC15488031
S113166017E0DFF8A40590F90800DFF89C1591F95C
S11316700610884207DADFF890058079401EDFF80B
S11316808815887105E0DFF88005C079DFF87815E2
S113169088713FE0DFF8801509680029FAD0DFF887
S11316A05C150968081AB0F5FA7F32D2DFF85805DC
S11316B00078002815D0DFF850054088DFF8481579
S11316C08988491E884207DADFF83C054088401CB7
S11316D0DFF8341548801CE00020DFF82C15488022
S11316E017E0DFF8240590F90600DFF81C1591F9DE
S11316F00710884207DADFF810058079401CDFF80C
S11317000815887105E0DFF80005007ADFF8F814A1
S11317108871FFE70020DFF8E814087001BD00B508
S1131720E5B000200AE0DFF8F414142202FB0011F3
S11317300968096800AA42F82010401CDFF8C814A0
S113174089888842EFDB5FF4FF2000F0EEFCDFF8CD
S1131750B8048088820000A95FF4FF2000F02FFD08
S113176065B000BD10B51721DFF8B40400F02DFEFC
S11317704FF45671484340F22B3190FBF1F4A4B27C
S1131780DFF8A0040088201A00F088FF042803DB97
S1131790DFF8900404801DE0A4B2DFF88804008818
S11317A0201A032807DBDFF87C040088401CDFF8DC
S11317B0741408800EE0A4B2DFF868040088201ACC
S11317C010F1020F06DADFF85C040088401EDFF82F
S11317D054140880DFF84C04008810BD80B5DFF88D
S11317E0280490F90600002808D4DFF81C0490F9B6
S11317F0060000F00AF800F0A0F805E0DFF808049D
S113180090F9060000F01EF901BD38B50400DFF8B8
S113181018040068A0420BD0002504E02800C0B2E0
S113182000F0C1FF6D1C052DF8DBDFF8FC0304603C
S1131830002C05D0022C68D042D3032C66D07BE068
S1131840DFF8E8030368DFF8E8230021002001F053
S11318504FFBDFF8D8030068DFF8D8130968431A90
S1131860C0A25021002001F043FBDFF8C00343680D
S1131870DFF8C4230021012001F03AFBDFF8AC03B8
S11318804068DFF8B0134968431AB6A2502101201A
S113189001F02EFBDFF894038368DFF8A023002116
S11318A0022001F025FBDFF884038068DFF884134D
S11318B08968431AABA25021022001F019FB3BE0D6
S11318C0DFF87C038368DFF87C230021002001F02B
S11318D00FFBDFF86C03C368DFF86C2300210120E1
S11318E001F006FBDFF844038369DFF8602300217D
S11318F0022001F0FDFADFF848034368DFF85023C3
S11319000021032001F0F4FA16E015E0DFF8FC02F0
S11319100089642190FBF1F201FB12000090DFF8D2
S1131920EC020089642190FBF1F3DFF82823002105
S1131930012001F0DDFAFFE731BD10B582B0DFF818
S1131940C8024488012C1BDBDFF8D002142101FB00
S1131950040010380090631EDFF8FC2200210520EB
S113196001F0C6FADFF8B402142101FB040050F8B8
S1131970140C0368A0A26021052001F0B9FA02E06A
S1131980052000F010FFDFF88002007800281AD04C
S1131990DFF88802142101FB0400001D00902300DD
S11319A0DFF8B4220021062001F0A2FADFF86C026D
S11319B0142101FB0400006803688FA26021062043
S11319C001F0B5FA19E0DFF85402142101FB040018
S11319D0001D00902300DFF880220021062001F082
S11319E0A6FADFF83802142101FB0400006803683A
S11319F081A26021062001F07BFADFF80C028088C6
S1131A00401E84421ADADFF81402142101FB040098
S1131A1018300090631CDFF840220021072001F0F9
S1131A2067FADFF8F801142101FB04004069036838
S1131A3071A26021072001F05BFA02E0072000F0A8
S1131A40B2FE13BD7FF00201401A05D0401E02D041
S1131A50401E02D101E000E0FFE7704730B44FF6CA
S1131A60FF72002300E05B1CDBB2C9B28B4213D2CD
S1131A70DBB21C5C6240002402E092B25208641C97
S1131A80E4B2082CEFDAD507F7D592B2520882F403
S1131A90204292F00102F2E7100080B230BC70479D
S1131AA000B58BB007A8102101F060FA03A810213B
S1131AB001F05CFA00A80021002200230EC00C38BB
S1131AC00020002111E0DFF89401C9B230F91100BF
S1131AD007AAC9B242F8210007A8C9B250F82100E8
S1131AE003AAC9B242F82100491CC9B20429EADB9D
S1131AF0002118E003A8C9B250F821004FF4807205
S1131B00B0FBF2F303FB120300A8C9B200F81130D2
S1131B1003A8C9B250F82100000A00AAC9B212EB06
S1131B2041025070491CC9B20429E3DB082100A812
S1131B30FFF794FF80B24FF4807190FBF1F202FB47
S1131B4011028DF8082080B24FF4807190FBF1F0FF
S1131B508DF809000A2200A9414801F09BFB0BB053
S1131B6000BD00002534640080B53E48C0780028DC
S1131B7011D02E480068394908802C4840683749FC
S1131B8048802F480069354988802848406833498F
S1131B90C880FFF785FFFFF783FF01BD1B4800786E
S1131BA0012811D11948C06814301849C860174871
S1131BB0C0682049096C4FF47A725143884219D3A2
S1131BC002201249087015E010480078022811D14B
S1131BD00E48C06814300D49C8601648006C401C9B
S1131BE04FF47A7148430949C968884202D20320F4
S1131BF0064908707047000025356400680FFF1F10
S1131C00AF10FF1F0C12FE43B80FFF1F9C0FFF1FE6
S1131C101812FE431012FE432012FE434404FF1F19
S1131C2000B00340AC10FF1FA010FF1F6C0FFF1F7C
S1131C30EC560000C40FFF1FF856000004570000C4
S1131C40880FFF1FAC560000BC5600001057000060
S1131C50CC560000985600001C5700009810FF1F37
S1131C6000A006409410FF1F80B500F017F800F0A4
S1131C700FF900F0F2F900F083F900F079F900F0BF
S1131C80B4FD00F040F900F09EF900F0C5F900F051
S1131C9014F900F0E7F800F0E9F801BD06E0DFF818
S1131CA0FC038088401CDFF8F4138880DFF8F0031D
S1131CB0DFF8E8138988142202FB0100407C002825
S1131CC0EDD10320DFF8D413C8710020DFF8CC1362
S1131CD0087270478C20DFF8CC1308608C20DFF882
S1131CE0C41348609120DFF8BC1388607D20DFF8BE
S1131CF0B413C8604FF42F70DFF8A813C8610A202A
S1131D00DFF8A01308610520DFF898134861052067
S1131D10DFF8901388614FF4FA60DFF88813886263
S1131D204FF44870DFF87C13C8625A20DFF874134C
S1131D3008633C20DFF86C13486341F29410DFF829
S1131D406413886341F66410DFF85813C8635020A5
S1131D50DFF85013C8643C20DFF8481308654FF4DB
S1131D60C170DFF8401348654820DFF838138865F0
S1131D700F20DFF8301308640220DFF828134864CA
S1131D804FF4FA70DFF81C1388644FF4FA70DFF82C
S1131D90141308664FF41670DFF80813486640F20F
S1131DA0EE20DFF8001388664FF46170DFF8F41258
S1131DB0C8664FF47A70DFF8EC12086740F24C40C2
S1131DC0DFF8E012486740F27E40B64988674FF476
S1131DD09660B449C86740F2E240B249C1F8800055
S1131DE040F21450AF49C1F8840040F24650AD4966
S1131DF0C1F888004FF4FA70AA49C1F88C004FF476
S1131E001670A849C1F8900040F2EE20A549C1F827
S1131E1094004FF46170A349C1F898004FF47A70AC
S1131E20A049C1F89C0040F24C409E49C1F8A00072
S1131E3040F27E409B49C1F8A4004FF49660994952
S1131E40C1F8A80040F2E2409649C1F8AC0040F263
S1131E5014509449C1F8B00040F246509149C1F879
S1131E60B400704780B500F033F901BD00200AE0EA
S1131E70810011F5FF210968894A142303FB00221C
S1131E8012681160401C854989888842F0DB7047DC
S1131E9000B587B0844801904FF416500290312069
S1131EA08DF80C0001A984B068461422FEF72EFFB9
S1131EB00FBC01F05FF807B000BD00B587B001A802
S1131EC0142101F053F8794801904FF4FC7002900A
S1131ED000208DF81000764803907648059001A9FB
S1131EE084B068461422FEF711FF0FBC01F0E2FA39
S1131EF001A984B068461422FEF708FF0FBC01F064
S1131F004DFB07B000BD00B58BB001A8142101F052
S1131F102DF8694801904FF44050029000208DF84C
S1131F2010001320039001A984B068461422FEF720
S1131F30EDFE0FBC01F0BEFA03A81C2101F016F857
S1131F405E48039004208DF8100000208DF81E00D8
S1131F5003A984B068461C22FEF7D8FE0FBCFEF726
S1131F6061FA0D220C215548FEF72BFB0BB000BD86
S1131F7080B501F08EFB01F025FD01F04DFE01BDA1
S1131F8000B587B001A8142100F0F0FF4C4801907F
S1131F9002208DF8090000208DF80A0007208DF832
S1131FA00C0001208DF80F0001A984B068461422AA
S1131FB0FEF7ACFE0FBC00F081F91721404800F099
S1131FC018FA07B000BD00B58BB003A81C2100F0BF
S1131FD0CDFF3C48039001208DF8100043F6982073
S1131FE0059003A984B068461C22FEF78FFE0FBC3F
S1131FF0FEF718FA282000906423002204213148B7
S1132000FEF793FA282000906523002205212D482D
S1132010FEF78BFA0BB000BD00B58BB003A81C21F2
S113202000F0A4FF2848039001208DF8100032200E
S1132030059003A984B068461C22FEF767FE0FBC16
S1132040FEF7F0F92820009032234FF4C1720021EA
S11320501D48FEF76AFA0BB000BD00B587B001A8B1
S1132060142100F083FF00208DF804001420039055
S11320701648059001A984B068461422FEF746FE6E
S11320800FBC01F0FDFE01A984B068461422FEF7DE
S11320903DFE0FBC01F040FF07B000BDB80FFF1FAD
S11320A04404FF1FC40FFF1F00A0064080F00F4030
S11320B010000A002B4C000000F00F400090034079
S11320C000B003400080034000800B40D14B00006F
S11320D06F480078800606D56D48007850F02000DF
S11320E06B49087014E06A480078C00606D5684851
S11320F0007850F010006649087009E064480078E0
S1132100400605D56248007850F0400060490870E8
S11321106048006830F010005E4908605E4800685E
S113212030F010005C490860704701000020584AF4
S113213012781206FBD50922584B1A700A0C584B18
S11321401A700A0A574B1A70574A11705049097885
S113215051F080014E4A11704D4909780906FBD5AA
S11321604B490978890608D54949097851F0200175
S1132170474A117050F001001FE045490978C9062B
S113218008D54349097851F01001414A117050F0C3
S1132190020012E03E490978490608D53C4909780D
S11321A051F040013A4A117050F0080005E03849F6
S11321B00978C90701D550F00400C0B2704730B4A3
S11321C013000022002B01D111205FE05B1E9B084D
S11321D05B1C2F4C24782406FBD5002B54D0D2B2A0
S11321E0002A51D106242D4D2C70040C2C4D2C703A
S11321F0040A2C4D2C702C4C2070CC782B4D2C7058
S11322008C782B4D2C704C782A4D2C700C782A4DE0
S11322102C701F4C247854F080041D4D2C701C4CE1
S113222024782406FBD51A4C2478A40608D5184C27
S1132230247854F02004164D2C7052F001021FE053
S1132240134C2478E40608D5114C247854F0100477
S11322500F4D2C7052F0020212E00D4C24786406EB
S113226008D50B4C247854F04004094D2C7052F0DE
S1132270080205E0064C2478E40701D552F0040274
S11322805B1E091D001DA8E71000C0B230BC7047DA
S11322900000024004F0014008F001400700024041
S11322A00600024005000240040002400B00024008
S11322B00A00024009000240080002400FB42DE960
S11322C0F84F0A9C9DF82C008DF802009DF82D0013
S11322D08DF801009DF82E008DF800009DF82F5018
S11322E09DF830609DF832709DF831809DF83490EF
S11322F0DDF838A0DFF88403844255D15FF0000B89
S1132300DFF87C03006850F00060DFF874130860A5
S11323109DF83300012802D1200000F055F99DF802
S113232000009DF80110890011F00C01084350F0E1
S11323300100A060FFB2EDB215F00300384350F085
S11323400400E06041F23420A06145F27860E0616D
S11323505FFA89F919F0400050F0180020629DF8E6
S11323603500012803D1206A50F004002062F6B23F
S113237066625FFA88F85FEA084020659DF802000B
S11323805FFA89F919F0010144F821005046002848
S113239005D0DFF8F0025FFA8BFB40F82BA0012098
S11323A0BDE8F20F5DF814FBDFF8DC0284420AD1C9
S11323B05FF0010BDFF8D402006850F00060DFF832
S11323C0CC120860A4E70020EAE7026832F0400279
S11323D0026002685209520102600268C9B211F037
S11323E01F011143016001680906FCD5006980B230
S11323F07047C268C2F30012C9B21F2901DB002072
S11324002CE09E4B98427AD1C9B2080000280328D8
S113241023D9001F23D0401E28D0401E01282CD9C8
S1132420801E012836D9801E01283DD9801E01282E
S113243044D9801E01284BD9801E53D0401E012848
S113244051D9801E012857D9001F55D0C01E01281C
S113245052D9C01E01284FD94FE001207047D2B293
S1132460012A02D100208A490860F6E7D2B2012A83
S113247002D1002087490860EFE7D2B2012A08D1CF
S11324800020C9B2890001F1804111F5982141F879
S1132490040CE2E70020C9B2890001F1804111F582
S11324A0942141F8200CD8E70020C9B2890001F139
S11324B0804111F5922141F80C0CCEE70020C9B2FD
S11324C0890001F1804111F5942141F8280CC4E7F9
S11324D00020C9B2890001F1804111F5962141F82B
S11324E0380CBAE7B9E70020C9B2890001F180418C
S11324F011F59A21C861B0E7AFE70020AEE7624B5F
S113250098425FD1C9B20800002803281BD9001FD4
S1132510032819D9001F01282CD9801E032833D978
S1132520001F01283AD9801E42D0401E41D0401ECF
S1132530022844D9401F42D0C01E01283FD9C01EE2
S113254001283CD93CE088E7D2B2002A09D1002016
S1132550C9B2890001F1804111F59A2141F8100CAA
S113256007E00020C9B2890001F1804111F59621EC
S1132570086172E70020C9B2890001F1804111F5B8
S1132580942141F8200C68E70020C9B2890001F1C8
S1132590804111F5942141F8180C5EE70020C9B27E
S11325A0890001F1804111F5942141F8100C54E7A0
S11325B053E70020384AC9B242F821004DE74CE7FE
S11325C000204BE7002049E7712181600421C160AC
S11325D041F23421816145F27861C16100210162D7
S11325E0416A31F00B014162416A51F007014162D5
S11325F0416A51F08001416201680906FCD5416AD3
S1132600490601D500202EE00021C26C1100826C25
S11326105118426C5118026C5118C26B5118826BDC
S1132620511889B2022291FBF2F151F4004189B2AE
S1132630C1620021C26E1100826E5118426E51189F
S1132640026E5118C26D5118826D511889B202225E
S113265091FBF2F151F4004189B20163416A31F016
S1132660800141620120704780B5064800688047B8
S113267001BD80B503484068804701BD00B00340F8
S11326803C800440800CFF1F00B00B4030800440AD
S113269008B0044004C0044000900440002800D561
S11326A04042704708210122DFF870331A6000BFEE
S11326B00022DFF86C331A6000BF0DE00022DFF85F
S11326C064331A600122DFF858331A6000BF002215
S11326D0DFF84C331A6040000A00511ED2B2002ABF
S11326E006D00206EAD50122DFF838331A60E9E79A
S11326F07047000008210022DFF820331A6000220E
S1132700DFF81C331A600DE00022DFF818331A607A
S11327100122DFF80C331A6000BF0022DFF8003317
S11327201A6040000A00511ED2B2002A06D00206E6
S1132730EAD50122DFF8EC321A60E9E7704710B5F8
S11327400400B1F15000C0B2FFF7D4FFE4B2200995
S113275050F01000C0B2FFF7CDFF14F00F0050F09E
S11327600100C0B2FFF7C6FF10BD70B5040000251C
S113277008E02000C0B2FFF795FF761CF6B2802E69
S1132780F7DB6D1CEDB2082D0CDAB5F15000C0B2C8
S1132790FFF7B0FF0120FFF7ADFF1020FFF7AAFFFE
S11327A00026EBE770BD10B55038C0B2FFF7A2FFAA
S11327B00120FFF79FFF1020FFF79CFF002403E098
S11327C00020FFF76FFF641CE4B2802CF8DB10BD1F
S11327D007E043F226410A00511E92B2002AFAD1C0
S11327E0401E80B20028F4D1704780B501214C20EE
S11327F000F0B3FE01214D2000F0AFFE01214E2078
S113280000F0ABFE01214F2000F0A7FE0120DFF80D
S1132810101208600020DFF8081208600120DFF8B9
S1132820041208600020DFF8FC1108600120DFF8C2
S1132830EC1108600020DFF8E41108600120DFF8E3
S1132840E81108600020DFF8E01108600120DFF8DB
S1132850D01108600020DFF8D01108600A20FFF7CB
S1132860B7FF0120DFF8C0110860AE20FFF742FF78
S11328700020FFF73FFF1020FFF73CFF4020FFF749
S113288039FF8120FFF736FFCF20FFF733FFA02069
S1132890FFF730FFC020FFF72DFFA620FFF72AFF28
S11328A0A820FFF727FF3F20FFF724FFD320FFF7DF
S11328B021FF0020FFF71EFFD520FFF71BFF80201C
S11328C0FFF718FFD920FFF715FFF120FFF712FFDC
S11328D0DA20FFF70FFF1220FFF70CFFDB20FFF7D2
S11328E009FF4020FFF706FF2020FFF703FF022027
S11328F0FFF700FF8D20FFF7FDFE1420FFF7FAFE1F
S1132900A420FFF7F7FEA620FFF7F4FEAF20FFF7A1
S1132910F1FE0020FFF729FF00210020FFF70FFF41
S113292001BD2DE9F84304000D00160000275FF0F7
S113293000085FF0000915E0DFF8F000FFB206219F
S113294001FB07005FFA88F818F80000FFF7AAFEF9
S113295018F101085FFA88F8B8F1060FECDBA41D42
S113296019F101095FFA89F919F80600002813D052
S11329705FFA89F919F80600B0F12007E4B27F2C58
S113298001DB00246D1C2900C9B22000C0B2FFF78E
S1132990D6FE5FF00008DDE7BDE8F1832DE9F843DA
S11329A004000D00160000275FF000085FF0000926
S11329B017E01E48FFB2062101FB07005FFA88F802
S11329C018F80000D0F1FF00C0B2FFF76BFE18F159
S11329D001085FFA88F8B8F1060FEADBA41D19F1C3
S11329E001095FFA89F919F80600002813D05FFA83
S11329F089F919F80600B0F12007E4B27F2C01DB55
S1132A0000246D1C2900C9B22000C0B2FFF797FE54
S1132A105FF00008DDE7BDE8F18300003C10FE43F1
S1132A203010FE433410FE433810FE43AC45000022
S1132A3010B50C001168012902D0022904D009E064
S1132A4040B25168884705E0916808709068401C5E
S1132A509060FFE72068401C206010BD30B41C006B
S1132A60002300250570401C002A19D0096800299C
S1132A700AD1302101705B1C180030BC704730351E
S1132A8011000570401C5B1C0029F5D091FBF4F289
S1132A9004FB1215002DF2D5E94311F13105EFE7DE
S1132AA00968002908D1302101705B1CE4E737353F
S1132AB011000570401C5B1C0029DDD0B1FBF4F251
S1132AC004FB12150A2DF2D23035F1E7F8B50400F3
S1132AD00D0016001F0005E03A0031003020FFF71A
S1132AE0A7FF641CAC42F7DBF1BDF8B504000D0090
S1132AF016001F0005E03A0031002020FFF798FF80
S1132B00641CAC42F7DBF1BD2DE9F04F8DB005003C
S1132B109046002000900C0004E02A0000A9FFF772
S1132B2087FF641C94F90000002800F0DD8125284B
S1132B3011D00A2804D02A0000A9FFF779FF09E080
S1132B402A0000A90D20FFF773FF2A0000A90A201C
S1132B50FFF76EFFE5E70026002101E056F00106CD
S1132B6000291CD1641C94F9000020280BD02328D0
S1132B700FD02B2804D02D28F0D0302806D00BE01D
S1132B8056F00206ECE756F00406E9E756F00806AC
S1132B90E6E756F01006E3E7641E0121E0E70027AC
S1132BA0002104E00A2202FB0700B0F130070029EB
S1132BB009D1641C94F900000200303A092AF1D9C1
S1132BC0641E0121F3E7641C94F900002E280CD143
S1132BD00021FFE7002909D1641C94F90000303872
S1132BE00928F7D9641E0121F4E7641E641C94F9D2
S1132BF000004C2806D0682802D06C2801D002E0DE
S1132C0002E001E000E0641E641C94F9000001008D
S1132C10582977D0622900F0D880632900F02A81EE
S1132C20642913D0692911D06E2900F056816F29C7
S1132C3000F0BE80702900F0D580732900F0248153
S1132C40752900F0DC8078295CD066E7D8F80000AC
S1132C5018F1040803900A23012203A904A8FFF72A
S1132C60FDFE814604A819EB000002900398002899
S1132C7004D55FF02D0A19F101090FE0B00704D55E
S1132C805FF02B0A19F1010908E0700704D55FF021
S1132C90200A19F1010901E05FF0000A5FF0000B5E
S1132CA0300711D5BAF1000F04D02A0000A950460C
S1132CB0FFF7BEFE5FF0010B2B0000AA3900484667
S1132CC0FFF704FFB94611E0F0070FD42B0000AA68
S1132CD039004846FFF709FFBAF1000F04D02A0073
S1132CE000A95046FFF7A4FE5FF0010BBBF1000FF3
S1132CF007D1BAF1000F04D02A0000A95046FFF70B
S1132D0097FEA9E0D8F8000018F1040801901023F8
S1132D10002201A904A8FFF7A1FE814604A819EB2B
S1132D20000002905FF0000B300715D5F0060BD5BC
S1132D302A0000A93020FFF77BFE2A0000A9782092
S1132D40FFF776FE5FF0010B2B0000AA390048461E
S1132D50FFF7BCFEB94619E0F00717D4F00601D519
S1132D6019F102092B0000AA39004846FFF7BDFEFD
S1132D70F0060BD52A0000A93020FFF759FE2A00DF
S1132D8000A97820FFF754FE5FF0010BF0060ED582
S1132D90BBF1000F0BD12A0000A93020FFF748FE39
S1132DA02A0000A97820FFF743FE19F1020953E035
S1132DB0D8F8000018F1040801900823002201A9A2
S1132DC004A8FFF74BFE814625E0D8F8000018F16F
S1132DD0040801900223002201A904A8FFF73EFE83
S1132DE0814618E0D8F8000018F104080190102377
S1132DF0002201A904A8FFF731FE81460BE0D8F8B0
S1132E00000018F1040801900A23002201A904A873
S1132E10FFF724FE814604A819EB00000290300756
S1132E2007D52B0000AA39004846FFF74FFEB946E4
S1132E3012E0F00710D42B0000AA39004846FFF72F
S1132E4054FE09E02A0000A9029890F90000FFF757
S1132E50EFFD0298401E0290029890F900000028AD
S1132E60F0D1F00705D52B0000AA39004846FFF73A
S1132E703CFE56E6D8F8000018F1040840B22A00D7
S1132E8000A9FFF7D5FD4CE6D8F800A018F1040816
S1132E90BAF1000F20D0504601F08CF88146F007BB
S1132EA00ED42B0000AA39004846FFF71EFE07E0A7
S1132EB02A0000A99AF90000FFF7BAFD1AF1010AE5
S1132EC09AF900000028F3D1F00705D52B0000AAD9
S1132ED039004846FFF709FE23E6D8F8000018F148
S1132EE00408009901601CE600980DB0BDE8F08F5D
S1132EF008B430B58AB004000D00110003A80028FE
S1132F000AD00220009003A802900DAA00A8FFF79F
S1132F10FBFD00200299087003AA2100C9B2280011
S1132F20C0B2FFF7FEFC0AB030BC5DF808FB08B481
S1132F3030B58AB004000D00110003A800280AD09F
S1132F400220009003A802900DAA00A8FFF7DCFD60
S1132F5000200299087003AA2100C9B22800C0B257
S1132F60FFF71CFD0AB030BC5DF808FB002201F03D
S1132F702FB800000FB4F0B50598069B9DF81C709F
S1132F809DF81D500899099A002B01D14FF416534E
S1132F90DFF84444A0423FD10024DFF8406436689F
S1132FA0DFF83CC4DCF800C05CF4806CDFF830E48B
S1132FB0CEF800C0FFB2022F06D14FF40077DFF83D
S1132FC024C4CCF800700FE0FFB20E2F06D14FF4EA
S1132FD04077DFF814C4CCF8007005E04FF4407774
S1132FE0DFF808C4CCF80070EDB2012D05D14FF420
S1132FF00075DFF8FC733D60F4E0EDB20F2D05D1F0
S11330004FF44075DFF8EC733D60EBE04FF440752E
S1133010DFF8E4733D60E5E0DFF8E043A0422CD143
S11330200124DFF8B8633668DFF8B4C3DCF800C005
S11330305CF4006CDFF8A8E3CEF800C0FFB2802F88
S113304006D14FF44077DFF8B8C3CCF8007005E040
S11330504FF44077DFF8ACC3CCF80070EDB2812DAB
S113306005D14FF44075DFF8A0733D60BAE04FF42A
S11330704075DFF898733D60B4E0DFF89443266848
S1133080DFF89043A04213D10224DFF854532D6893
S113309055F48055DFF848733D604FF44075DFF810
S11330A078733D604FF44075DFF870733D6099E0CC
S11330B0DFF86C43A0423CD10324DFF824C3DCF8DE
S11330C000C05CF4005CDFF818E3CEF800C0FFB287
S11330D0842F06D14FF44077DFF848C3CCF8007052
S11330E00FE0FFB22B2F06D14FF44077DFF838C33F
S11330F0CCF8007005E04FF44077DFF830C3CCF82B
S11331000070EDB2852D05D14FF44075DFF82073C2
S11331103D6067E0EDB22A2D05D14FF44075DFF82C
S113312014733D605EE04FF44075DFF80C733D604E
S113313058E0DFF80843A04229D10424DFF800C393
S1133140DCF800C05CF4806CDFF8F4E2CEF800C078
S1133150FFB2982F06D14FF44077DFF8E8C2CCF8DD
S1133160007005E04FF44077DFF8DCC2CCF8007063
S1133170EDB2992D05D14FF44075DFF8D0723D6062
S113318030E04FF44075DFF8C8723D602AE0052452
S1133190DFF8C002DFF8A8C2DCF800C05CF4006C01
S11331A0DFF89CE2CEF800C0FFB2692F06D14FF4DD
S11331B04077DFF8A4C2CCF8007005E04FF4407704
S11331C0DFF898C2CCF80070EDB2682D05D14FF449
S11331D04075DFF88C723D6004E04FF44075DFF811
S11331E084723D60C57815F0F305C57000258570BF
S11331F01D01B6FBF5F5077817F0E007ADB25FEAFD
S1133200152C1CF01F0C5CEA07070770457076014B
S11332101B01B6FBF3F3ADB2B3EB4513857A15F09E
S1133220E00713F01F033B4383729DF81E30012B0C
S11332300CD10B00002B09D0C37853F02003C370CA
S1133240DFF82432E4B243F8241003E0C17811F02B
S1133250DF01C1709DF81F1001290BD11100002955
S113326008D0C17851F08001C1708049E4B241F8BE
S1133270242003E0C17811F07F01C170C17851F0BE
S11332800C01C170F0BC5DF814FB02791206FCD588
S1133290C171704770B504000D00160006E095F981
S11332A0001049B22000FFF7F0FF6D1C3000461EED
S11332B00028F4D170BD80B56D480078800606D52D
S11332C06C480078800602D56748006880476848E3
S11332D00078000606D567480078000602D56348E2
S11332E00068804701BD80B563480078800606D534
S11332F062480078800602D55B48406880475E4893
S11333000078000606D55D480078000602D55748C7
S11333104068804701BD80B559480078800606D5CD
S113332058480078800602D54F4880688047544842
S11333300078000606D553480078000602D54B48AD
S11333408068804701BD80B54F480078800606D567
S11333504E480078800602D54348C06880474A48F2
S11333600078000606D549480078000602D53F4893
S1133370C068804701BD80B545480078800606D501
S113338044480078800602D53748006980474048A1
S11333900078000606D53F480078000602D5334879
S11333A00069804701BD80B53B480078800606D59A
S11333B03A480078800602D52B4840698047364851
S11333C00078000606D535480078000602D527485F
S11333D04069804701BD000000A006402404FF1F8F
S11333E034800440089004403890044044A00440D1
S11333F0049004403C90044040A0044000B00640C7
S113340000D0044010B0044004D004400CB0044088
S11334102804FF1F00C006400CC0044008C004403C
S113342000D0064010D004402CA0044044B0044016
S113343014D0044028A0044040B0044000A00E4032
S11334402880044060D004403CB0044064D0044070
S113345038B0044000B00E4024C0044020D00440E2
S113346020C0044024D00440100FFF1F280FFF1F6A
S113347004A0064003A0064004B0064003B0064082
S113348004C0064003C0064004D0064003D00640F2
S113349004A00E4003A00E4004B00E4003B00E4042
S11334A0012110F01F029140634A40B2400942F8E2
S11334B0201070470FB4F0B4069850F48070049B49
S11334C005999DF81C709DF81D40089A5B4DAB4210
S11334D00CD15B4E0025FFB2012F23D15F690F434E
S11334E05F61E4B2012C1BD159601EE0554DAB4223
S11334F002D1554E0125EEE7544DAB4202D1544E54
S11335000225E8E7534DAB4202D1534E0325E2E7CF
S1133510524DAB4202D1524E0425DCE7002019E0A3
S1133520996002E05C698C435C61002307E031FA36
S113353003F4E40702D5DBB246F823005B1CDBB2DC
S1133540202BF4DB1000002803D04648EDB240F8ED
S113355025200120F0BC04B0704710B4C0B2420969
S113356010F01F00D2B2930103F1804313F57F23BF
S1133570D2B2120302F1804212F592221433C0B285
S1133580840014EB431313F18443C9B219604FF45C
S11335908071C0B242F8201010BC70470FB480B5DF
S11335A002982649884201D100200FE0254988422B
S11335B001D101200AE02549884201D1022005E019
S11335C02449884201D1032000E00420573040B24E
S11335D0FFF766FF012002BC5DF814FB80B52148AB
S11335E0006880475FF0FF301F49086001BD80B567
S11335F01C48406880475FF0FF301C49086001BDEB
S113360080B51848806880475FF0FF30184908602B
S113361001BD80B51348C06880475FF0FF3015498D
S1133620086001BD80B50F48006980475FF0FF3036
S11336301149086001BD000000E100E000F00F4006
S11336400090044040F00F4000A0044080F00F4080
S113365000B00440C0F00F4000C0044000F10F402F
S113366000D004407C0EFF1FA0900440A0A00440A2
S1133670A0B00440A0C00440A0D00440002103E056
S1133680521C082AFCDB491C814201DA0022F8E7BB
S1133690704780B500F07FF8B7480178012000F04A
S11336A00BF9B6480178022000F006F9B448017815
S11336B0032000F001F91F21042000F0FDF801218E
S11336C0052000F0F9F802210A2000F0F5F80121A4
S11336D00B2000F0F1F85021062000F0EDF8142141
S11336E0072000F0E9F8C021082000F0E5F81221D5
S11336F0092000F0E1F80C22A249002000F016F99C
S113370001BD70B500200025002600210D0011E048
S113371002229D49212000F009F99B4840780002CB
S113372099490978401847F6FF71884201D2041973
S1133730761C6D1C95480078EDB28542E8D3F6B24C
S1133740B4FBF6F0002470BD70B58AB000250026E5
S1133750002406E0FFF7D5FF00A9E4B241F82400F5
S1133760641CE4B20A2CF5DB00240CE000A8E4B2EB
S113377050F82400002805D000A8E4B250F8240032
S113378086196D1C641CE4B20A2CEFDBEDB296FBC7
S1133790F5F00AB070BD80B500212020FFF7DDFEF2
S11337A001212120FFF7D9FE01212220FFF7D5FEB8
S11337B001212320FFF7D1FE00212B20FFF7CDFEAE
S11337C001212A20FFF7C9FE01214120FFF7C5FE90
S11337D001214020FFF7C1FE00216120FFF7BDFE5B
S11337E001215220FFF7B9FE01213020FFF7B5FE79
S11337F001216320FFF7B1FE012065490860012023
S11338006449086001206449086000206349086035
S1133810012063490860012062490860012062496F
S113382008600020614908600120614908600120A6
S11338306049086001206049086000205F49086011
S113384001BD10B40022002100231A0021E05C4BCA
S11338505B681B6833F00203594C646823604000C2
S11338604900574B5B681B6833F00803544C646889
S11338702360534B5B681B69DB0701D551F00101E1
S11338804F4B5B681B6853F008034D4C646823601E
S1133890521CD2B2082A0ADA0306D8D5484B5B6810
S11338A01B6853F00203464C64682360D7E70800A2
S11338B0C0B210BC7047000038B504000D00404889
S11338C04068006830F004003D49496808600220FF
S11338D0FFF7D4FE14F07F042000C0B2FFF7B1FF5D
S11338E000BF00BF00BF00BF00BF00BF00BF00BFDC
S11338F000BF00BF00BF00BF00BF00BF00BF00BFCC
S113390000BF00BF00BF00BF00BF2800C0B2FFF768
S113391098FF40F2A460FFF7B1FE294840680068B0
S113392050F0040026494968086031BD70B50C00A8
S1133930150023494968096831F00401204A526896
S1133940116050F08000C0B2FFF77BFF002605E055
S11339500020FFF776FFF6B23055761CF6B2EDB2D2
S1133960AE42F5D316484068006850F0040014498C
S11339704968086070BD00003504FF1F3604FF1F4E
S11339803704FF1F440FFF1FA610FF1F3404FF1F3F
S1133990000AFE430408FE430808FE430C08FE43E5
S11339A02C0AFE432808FE430410FE430010FE4385
S11339B0041AFE434810FE434008FE430C18FE431D
S11339C01004FF1F80B58D480178012000F0B6F87F
S11339D08B480178022000F0B1F88A48017803206E
S11339E000F0ACF81F21042000F0A8F80121052004
S11339F000F0A4F802210A2000F0A0F801210B2015
S1133A0000F09CF85021062000F098F814210720BB
S1133A1000F094F8C021082000F090F81221092049
S1133A2000F08CF80C227849002000F0C1F801BDA8
S1133A3070B500200025002600210D0010E00222B0
S1133A407249212000F0B4F87048407800026F49B0
S1133A5009784018B0F5004F01D20419761C6D1C8A
S1133A606B480078EDB28542E9D3F6B2B4FBF6F0C8
S1133A70002470BD70B58AB000250026002406E03D
S1133A80FFF7D6FF00A9E4B241F82400641CE4B2B5
S1133A900A2CF5DB00240CE000A8E4B250F8240062
S1133AA0002805D000A8E4B250F8240086196D1C43
S1133AB0641CE4B20A2CEFDBEDB296FBF5F00AB01D
S1133AC070BD10B40022002100231A0023E0514BE2
S1133AD05B681B6833F480634E4C64682360400069
S1133AE049004C4B9B681B685B085B00494CA4680D
S1133AF02360484B5B681B69C3F3C023002B01D0D0
S1133B0051F00101434B9B681B6853F00103414C86
S1133B10A4682360521CD2B2082A0ADA0306D6D556
S1133B203C4B5B681B6853F480633A4C64682360C5
S1133B30D5E70800C0B210BC7047000038B50400D7
S1133B400D0034488068006830F00200314989680B
S1133B5008600220FFF792FD14F07F042000C0B239
S1133B60FFF7AFFF00BF00BF00BF00BF00BF00BF33
S1133B7000BF00BF00BF00BF00BF00BF00BF00BF49
S1133B8000BF00BF00BF00BF00BF00BF00BF2800D0
S1133B90C0B2FFF796FF40F2A460FFF76FFD1D4827
S1133BA08068006850F002001A498968086031BDD5
S1133BB070B50C00150017498968096831F00201D5
S1133BC0144A9268116050F08000C0B2FFF779FF88
S1133BD0002605E00020FFF774FFF6B23055761C8E
S1133BE0F6B2EDB2AE42F5D30A488068006850F0F0
S1133BF0020008498968086070BD00003904FF1F8D
S1133C003A04FF1F3B04FF1F500FFF1FA810FF1FA4
S1133C103804FF1F1004FF1F80B58D480178012070
S1133C2000F0B6F88B480178022000F0B1F88A4819
S1133C300178032000F0ACF81721042000F0A8F864
S1133C400121052000F0A4F802210A2000F0A0F8C8
S1133C5001210B2000F09CF85021062000F098F878
S1133C601421072000F094F8C021082000F090F8F7
S1133C701221092000F08CF80C227849002000F071
S1133C80C1F801BD70B500200025002600210D00FB
S1133C9010E002227249212000F0B4F87048407804
S1133CA000026F4909784018B0F5004F01D2041999
S1133CB0761C6D1C6B480078EDB28542E9D3F6B2F0
S1133CC0B4FBF6F0002470BD70B58AB00025002660
S1133CD0002406E0FFF7D6FF00A9E4B241F824006F
S1133CE0641CE4B20A2CF5DB00240CE000A8E4B266
S1133CF050F82400002805D000A8E4B250F82400AD
S1133D0086196D1C641CE4B20A2CEFDBEDB296FB41
S1133D10F5F00AB070BD10B40022002100231A008F
S1133D2023E0514B9B681B6833F480234E4CA468FA
S1133D302360400049004C4BDB681B6833F00803E8
S1133D40494CE4682360484BDB681B69C3F34003B8
S1133D50002B01D051F00101434BDB681B6853F089
S1133D600803414CE4682360521CD2B2082A0ADAE0
S1133D700306D6D53C4B9B681B6853F480233A4C0E
S1133D80A4682360D5E70800C0B210BC70470000E7
S1133D9038B504000D0034484068006830F48030C1
S1133DA03149496808600220FFF768FC14F07F0479
S1133DB02000C0B2FFF7AFFF00BF00BF00BF00BFCD
S1133DC000BF00BF00BF00BF00BF00BF00BF00BFF7
S1133DD000BF00BF00BF00BF00BF00BF00BF00BFE7
S1133DE000BF2800C0B2FFF796FF40F2A460FFF7BF
S1133DF045FC1D484068006850F480301A49496801
S1133E00086031BD70B50C00150017494968096890
S1133E1031F48031144A5268116050F08000C0B20D
S1133E20FFF779FF002605E00020FFF774FFF6B2E4
S1133E303055761CF6B2EDB2AE42F5D30A4840686E
S1133E40006850F4803008494968086070BD00007B
S1133E503D04FF1F3E04FF1F3F04FF1F5C0FFF1FB5
S1133E60AA10FF1F3C04FF1F1004FF1F012110F0C4
S1133E701F029140444A40B2400942F82010704762
S1133E800FB410B4029841490968414AB1FBF2F1F8
S1133E90039A3E4B1B683E4CB3FBF4F35A434FF476
S1133EA07A735A4301FB00200499384A1268384B4C
S1133EB0B2FBF3F25143364A02FB01019DF80400C0
S1133EC0059A344B1B6853F40003324C23600023DF
S1133ED0314C23601300002B09D0304BC0B243F89F
S1133EE0202002222E4BC0B213EB00139A60491E0D
S1133EF02B4AC0B2030199502949C0B211EB0011F9
S1133F00896851F00101264AC0B212EB00108160A9
S1133F10012010BC04B070470FB480B59DF80800B0
S1133F20443040B2FFF7A2FF01BC5DF814FB80B53A
S1133F301C48006850F001001A49086017480068DE
S1133F40804701BD80B51548406880471648006821
S1133F5050F001001449086001BD80B50F48806825
S1133F6080471248006850F001001049086001BD04
S1133F7080B50A48C06880470D48006850F00100C9
S1133F800B49086001BD000000E100E02804FF1FA8
S1133F9040420F003C80044000700340A40EFF1F09
S1133FA0007103400C7103401C7103402C710340E9
S1133FB03C7103400021002802D1002007E0491C85
S1133FC00200501C92F90020002AF8D10800704722
S1133FD000B500BF130096469446103928BFA0E8E8
S1133FE00C50FAD85FEA417C28BF0CC048BF40F8A7
S1133FF0042BC90728BF20F8022B48BF00F8012B67
S113400000BD000080B5FDF7ADFBDFF84C1508815D
S1134010DFF8480500F049F8DFF840050068DFF8EC
S113402040150968401ADFF83C150860DFF82C05D4
S11340304068DFF82C154968401ADFF82C15086031
S1134040DFF818058068DFF818158968401ADFF86A
S11340501C150860DFF80C0500680F2809DBDFF881
S1134060080500680F2804DA0120DFF80415088029
S11340700DE0DFF8F40400680F2808DBDFF8E4043F
S113408000680F2803DA0220DFF8E4140880DFF860
S1134090E404FCF790FA00B24042DFF8C0148861EF
S11340A0DFF8D004FCF78AFA01BD10B50400002043
S11340B009E0DFF8A81451F82010DFF8A02412EB6F
S11340C08002D160401C0328F3DBFFF73DFB642131
S11340D090FBF1F0DFF884140860FFF7CBFC642157
S11340E090FBF1F0DFF874144860FFF7EDFD6421F4
S11340F090FBF1F0DFF864148860002006E0DFF83C
S11341005C1451F8201044F82010401C032829DACC
S1134110DFF8481451F82010DFF8402412EB800235
S1134120D268891A152908DBDFF8301411EB8001F5
S1134130C968143144F82010E7E7DFF8201411EBC4
S11341408001C968DFF8142452F82020891A15293F
S1134150D5DBDFF8081411EB8001C968143944F881
S11341602010D2E710BD80B5DFF8F00300F01FF88F
S1134170DFF804140860DFF80004006800F0D0F8E9
S1134180DFF8F4134860DFF8F003006800F012F978
S1134190DFF8E4138860DFF8E0038168DFF8BC032C
S11341A0806900F05CF9DFF8D013C86001BD80B508
S11341B0DFF8B00300680B280FDADFF8AC030068FF
S11341C00B280ADADFF8A403006810F1140F04DAEC
S11341D00020DFF8A813087041E0DFF888030068C6
S11341E00B280ADBDFF8800300680B2805DB0220BC
S11341F0DFF888130870002071E0DFF8600380693D
S1134200B0F5966F0EDDDFF85C030068152804DA5C
S1134210DFF854030068152804DB0520DFF85C137D
S113422008701CE0DFF83C0300680B2804DADFF8B0
S113423038030068142809DADFF828030068142812
S113424009DBDFF8240300680B2804DA0620DFF812
S11342502C13087003E00120DFF820130870DFF846
S11342602013DFF80003006800F03AF8DFF81413B5
S11342700861DFF81413DFF8F002006800F030F88A
S1134280DFF800134861B648006BDFF8F8120969DB
S11342904843B4490968B24A526BBA4B5B695A4302
S11342A0B14B1B685A4301FB00204FF47A7190FB19
S11342B0F1F0AD490968052906DBAA490968052911
S11342C002DA5FF0FF314843B0F57A7F02DD4FF444
S11342D07A7004E010F57A7F01DAAC48FFE702BD9A
S11342E010B40A2290FBF2F20A2303FB1200002A04
S11342F001D5002012E00A2A02DB4FF47A700DE0A7
S113430051F82230D0F10A0411EB8201496800FB14
S113431001F004FB0300322190FBF1F010BC704764
S11343208F49C96C8E4A126D994B1B68C31A5A4344
S113433000FB0121642291FBF2F1894A526D884B02
S11343409B6D01FB03F14FF47A7391FBF3F1891830
S11343508F4A10608948007800280FD1844800886B
S1134360012805D17E48406D7D49896D081820E0FB
S11343707B48406D7A49896D401A1AE07848406D4F
S1134380774A926D801A814205DA7548406D744906
S1134390896D401A0DE07248406D714A926D101893
S11343A0884205DA6E48406D6D49896D081800E051
S11343B00800704780B5FEF771F96949896A684A4F
S11343C0926A674BDB6AD21A50434FF47A7290FBBD
S11343D0F2F0081A60490978022901D100203DE071
S11343E066490978052904D15C4880694042400047
S11343F034E062490978002929D158488069B0F528
S1134400966F04DD554880694042400026E05348D9
S11344108069B0F57A7F08DD5148C06A80004F4951
S11344208969032202FB110018E04D48C06A4B4918
S11344308969884208DA4A48C06A032148434749DF
S11344408969B0EB410009E04548C06A06E04B4980
S11344500978062902D14248C06AFFE702BD30B498
S1134460081A4C4908604B4800684B490968401ACF
S113447049490968474A1268D2EB4101474A126820
S1134480891A474A1268364B1B69354C6469414D99
S11344902D686C4300FB0340314B9B6901FB030017
S11344A080183F4908603C4800683C490860394826
S11344B00068394908602A48806B3949096888428C
S11344C004DA2748806B364908600AE034480068FB
S11344D02349C96BC84204DA2148C06B40423049C1
S11344E008602F48006830BC704780B51A480078CF
S11344F0012803D01848007802281CD11E48C0683F
S113450001280BDB1C48C26804212648FCF739F853
S1134510002205212348FCF734F816E00022042188
S11345202048FCF72EF81448C068424205211D4873
S1134530FCF727F809E0002205211A48FCF721F8C6
S1134540002204211748FCF71CF80B48426800219C
S11345501548FCF716F801BD9C0FFF1F6C0FFF1FD9
S1134560C40FFF1F600CFF1F640CFF1F680CFF1FAC
S1134570A410FF1F00900340880FFF1FAE10FF1F01
S11345802410FF1F7C10FF1F5010FF1F18FCFFFF9B
S11345906C0CFF1F740CFF1F780CFF1F7C0CFF1F9B
S11345A0700CFF1F0080034000800B4000000000DF
S11345B000000000002F00000000070007000014A6
S11345C07F147F1400242A7F2A12006264081323B4
S11345D000364955225000000503000000001C224B
S11345E04100000041221C000014083E0814000889
S11345F0083E0808000000A0600000080808080839
S1134600000060600000002010080402003E5149D0
S1134610453E0000427F400000426151494600216E
S113462041454B31001814127F1000274545453988
S1134630003C4A49493000017109050300364949E3
S1134640493600064949291E00003636000000009C
S113465056360000000814224100001414141414E7
S11346600000412214080002015109060032495990
S1134670513E007C1211127C007F49494936003EAC
S113468041414122007F4141221C007F4949494167
S1134690007F09090901003E4149497A007F080861
S11346A0087F0000417F4100002040413F01007F1E
S11346B008142241007F40404040007F020C027FEA
S11346C0007F0408107F003E4141413E007F0909FC
S11346D00906003E4151215E007F09192946004622
S11346E0494949310001017F0101003F4040403FF9
S11346F0001F2040201F003F4038403F0063140843
S1134700146300070870080700615149454300001D
S11347107F41410000552A552A55000041417F0040
S11347200004020102040040404040400000010235
S11347300400002054545478007F4844443800381E
S11347404444442000384444487F003854545418A6
S113475000087E0901020018A4A4A47C007F0804B8
S113476004780000447D4000004080847D00007F88
S1134770102844000000417F4000007C04180478A5
S1134780007C0804047800384444443800FC2424A1
S113479024180018242418FC007C08040408004889
S11347A05454542000043F444020003C4040207CAA
S11347B0001C2040201C003C4030403C0044281099
S11347C02844001CA0A0A07C004464544C4414144D
S11347D01414141480B582480068002809D57D4853
S11347E0006880477E48006850F000407C490860BB
S11347F044E07B480068C00009D57648406880479B
S11348007748006850F080507549086036E0744875
S11348100068000109D56F488068804770480068C7
S113482050F000606E49086028E06D48006880011F
S113483009D56848006980476948006850F00070ED
S1134840674908601AE066480068000309D56148B2
S1134850C06880476248006850F4002060490860DE
S11348600CE05F480068800308D55A4840698047D7
S11348705B48006850F400305949086001BD80B5B8
S113488058480068002809D55348006880475548AF
S1134890006850F000405349086044E05148006803
S11348A0C00009D54C48406880474E48006850F025
S11348B080504C49086036E04A480068000109D538
S11348C04548806880474748006850F00060454983
S11348D0086028E043480068800109D53E48006923
S11348E080474048006850F000703E4908601AE074
S11348F03C480068000309D53748C06880473948F8
S1134900006850F40020374908600CE0354800681E
S1134910800308D53048406980473248006850F425
S113492000303049086001BD80B52F480068002878
S113493009D52A48006880472B48006850F0004099
S11349402949086044E028480068C00009D5234884
S1134950406880472448006850F08050224908602D
S113496036E021480068000109D51C48806880476A
S11349701D48006850F000601B49086028E01A4890
S11349800068800109D51548006980471648006809
S113499050F00070144908601AE0134800680003DE
S11349A009D50E48C06880470F48006850F40020BD
S11349B00D4908600CE00C480068800308D50748DE
S11349C0406980470848006850F400300649086090
S11349D001BD0000C00EFF1FD80EFF1FF00EFF1F09
S11349E02CC002402CD002402CC00A40C9B220295D
S11349F006DA026B012313FA01F11143016306E0A5
S1134A00C26A0123203913FA01F11143C1627047CC
S1134A10C9B2202904DA006BC84010F0010004E098
S1134A20C06A2039C84010F00100C0B2704738B5E0
S1134A3005000C002100C9B22800FFF7E9FF002897
S1134A4021D02100C9B22800FFF7D0FF5748854282
S1134A500BD15848E4B250F82400002813D055482C
S1134A60E4B250F8240080470DE0514885420AD151
S1134A705148E4B250F82400002804D04E48E4B26F
S1134A8050F82400804731BD38B504000D002900DA
S1134A90C9B22000FFF7BCFF012812D14348844269
S1134AA010D14448EDB250F82500002804D0414804
S1134AB0EDB250F8250080472900C9B22000FFF765
S1134AC095FF31BD3A4884420BD13B48EDB250F8D2
S1134AD025000028F0D03848EDB250F82500804772
S1134AE0EAE7EEE710B500240FE03448E4B210EB37
S1134AF00410007A012807D12100C9B22F48E4B27A
S1134B0022011058FFF7C0FF641CE4B2102C15DA20
S1134B102A48E4B2210108580028F5D02748E4B215
S1134B2010EB0410007A0228DFD12100C9B2234817
S1134B30E4B222011058FFF77AFFE5E710BD80B513
S1134B40FFF7D0FF01BD04201D49086070471C48D1
S1134B500068810701D51A49086070475FF4003086
S1134B601749086070475FF4803015490860704742
S1134B7070477047704780B5FFF7B4FF01BD04204C
S1134B801049086070470F480068810701D50D4936
S1134B90086070475FF400300A49086070475FF4AA
S1134BA0803008490860704700000000004002405F
S1134BB000400A40880DFF1FC80DFF1F880CFF1F0F
S1134BC02040024020400A40704770477047000070
S1134BD080B55E48006814305C490860FCF7DEFF6D
S1134BE0FFF710FAFFF7BFFA59480078002805D1FB
S1134BF05848006914305749086102E000205549BB
S1134C000861544800695449496C884202D302201F
S1134C10504908704F480078FFF767FC4F48C07848
S1134C2090F001004D49C87001BD4D48006840072F
S1134C3006D5012047494870444800684549486002
S1134C4047480068000702D50120464908704448D7
S1134C500068800664D544480068002831D00220EA
S1134C604049087041480078002819D040483F491D
S1134C704988142202FB0100006800683C493B4A51
S1134C805288142303FB0211497C50FA81F03849FD
S1134C90364A5288142303FB0211096808603FE076
S1134CA03248408831498988491E884205DA2F48AC
S1134CB04088401C2D49488032E000202B49488020
S1134CC02EE003202749087028480078002818D0CF
S1134CD0274826494988142202FB0100006800681D
S1134CE02349224A5288142303FB0211497C401AA7
S1134CF01F491E4A5288142303FB021109680860E5
S1134D000EE01A484088002805D018484088401E04
S1134D101649488004E015488088401E134948809D
S1134D200F480068400602D506200E4908700C485A
S1134D300068C00602D504200A49087008480068C3
S1134D40C00502D50520074908707047680FFF1F8A
S1134D50AE10FF1F9C0FFF1FC40FFF1F9410FF1FF7
S1134D60A0B00440AF10FF1F1C12FE43B80FFF1F7A
S1134D704404FF1FDFF800F0150CFF1FF8B5C0B2A4
S1134D80C92801D3C820FFE7C0B2010030290ED0E2
S1134D9032291AD060291BD064291CD078291DD04F
S1134DA096291ED0B4291FD0C82920D022E0182764
S1134DB0002506000024C0B23221B0FBF1F1491EE7
S1134DC0C9B2FF291AD1002120E018270125F0E7F4
S1134DD018271825EDE718271A25EAE713271825B9
S1134DE0E7E70F271825E4E70E271E25E1E70C2740
S1134DF01C25DEE76020FFF7C1FF7CE0C0B2C9B22A
S1134E004A1C90FBF2F2332A00D3491CC0B232226E
S1134E10B0FBF2F2521ED2B2FF2A01D1002207E007
S1134E20C0B2D2B2531C90FBF3F3332B00D3521C09
S1134E30C0B21923B0FBF3F35B1EDBB2FF2B01D12D
S1134E40002308E0C0B2DBB213F1010C90FBFCF0CC
S1134E501A2800D35B1C0020DFF89CC08CF80000EB
S1134E602648006850F08050DFF890C0CCF800006D
S1134E702348007850F08000DFF884C08CF80000EC
S1134E809820DFF880C08CF800001F480078C00626
S1134E90FBD41D480078C0F38100C0B20228F8D1C9
S1134EA017F01F00194F38700020194F3870DBB20B
S1134EB0D2B2C9B2E4B22000FFF75CFF15F01F00C4
S1134EC050F04000124908700F4800788006FBD566
S1134ED00D4800784006FBD50A48007810F03F00E2
S1134EE00849087008480078C0F38100C0B203285C
S1134EF0F8D13000C0B2F2BD014006403480044015
S1134F0008C00740004006400640064004400640F2
S1134F100540064080B557480068804756480068F9
S1134F2050F001005449086001BD80B55148406803
S1134F3080475148006850F002004F49086001BDA5
S1134F4080B54C48806880474B48006850F00400A6
S1134F504949086001BD80B54648C0688047464855
S1134F60006850F008004449086001BD80B541481C
S1134F70006980474048006850F010003E490860CE
S1134F8001BD80B53B48406980473B48006850F00C
S1134F9020003949086001BD80B5364880698047E2
S1134FA03548006850F040003349086001BD80B5C1
S1134FB03048C06980473048006850F080002E496E
S1134FC0086001BD80B52B48006A80472A48006804
S1134FD050F480702849086001BD80B52548406AB6
S1134FE080472548006850F400702349086001BDDB
S1134FF080B52048806A80471F48006850F001004F
S11350001D49086001BD80B51A48C06A80471A4826
S1135010006850F400601849086001BD80B5154867
S1135020006B80471448006850F4805012490860AF
S113503001BD80B50F48406B80470F48006850F4AD
S113504000500D49086001BD80B50A48806B804757
S11350500948006850F480400749086001BD80B5E4
S11350600448C06B80470448006850F4004002497B
S1135070086001BD200EFF1F2480004000B587B0EA
S11350803348006850F47850314908604CF220509D
S1135090304908804DF628102E4908804FF4E970F5
S11350A02D49088000F070F86420FFF767FE00F0D7
S11350B03BF82A4800682A490860294800682949B9
S11350C00968C1F30361491CB0FBF1F0264908608B
S11350D02348006823490968C1F30351491CB0FB04
S11350E0F1F0224908601E4800681E490968C1F3AE
S11350F00341491CB0FBF1F01D4908601D480190B3
S11351005FF4E130029030208DF80D0031208DF8ED
S11351100C0001A984B068461422FBF7F7FD0FBC0C
S1135120FDF728FF07B000BD13480078C0B210F0A7
S11351301F0018301149484311490978C9B211F0C8
S11351401F01491CB0FBF1F00449086070470000DE
S1135150388004400E200540002005404004FF1F15
S11351602404FF1F448004402804FF1F3004FF1F51
S11351702C04FF1F00B00E400540064080F0FA02E8
S113518004400640704770471C481D4988420BD0B4
S1135190002006E01A4951F82010184A42F820105D
S11351A0401CB0F5826FF5D31448164908601649BF
S11351B0164A1748801A03E013780B70521C491CD6
S11351C00300581E002BF7D112491348401A02E07D
S11351D000220A70491C0200501E002AF8D10F490F
S11351E00F4A1048801A03E013780B70521C491CB4
S11351F00300581E002BF7D1704700BF0000FF1FAB
S11352000000000008ED00E01004FF1F840D000002
S113521088150000600CFF1FB010FF1F140CFF1F47
S1135220B0550000FC55000080B538480078C00730
S11352300CD537480078C00708D531480068804746
S11352403248007810F0FE00304908702F4800788A
S113525080070CD52E480078800708D529480068B7
S113526080472A48007810F0FD0028490870274834
S1135270007840070CD526480078400708D5224816
S1135280006880472148007810F0FB001F4908702F
S113529001BD80B51F480078C0070CD51E480078B2
S11352A0C00708D51648406880471A48007810F0AF
S11352B0FE00184908701748007880070CD5164876
S11352C00078800708D50F48406880471148007867
S11352D010F0FD000F4908700E48007840070CD507
S11352E00D480078400708D50748406880470948BA
S11352F0007810F0FB000749087001BD00000000B1
S1135300080EFF1F100EFF1F180EFF1F20C00C40B9
S113531021C00C4020D00C4021D00C4080B52D4839
S11353200078800726D52A48006880472A480078F4
S1135330000705D52848007850F008002649087071
S113534025480078800705D52348007850F00200EE
S1135350214908701F480078C00605D51D4800780B
S113536050F010001B4908701A48007850F00200F1
S11353701849087001BD80B518480078800726D503
S113538013484068804716480078000705D514483C
S1135390007850F00800124908701148007880071E
S11353A005D50F48007850F002000D4908700B48ED
S11353B00078C00605D50948007850F01000074968
S11353C008700648007850F002000449087001BDD6
S11353D0900EFF1F036006400860064003700640FD
S11353E00870064080B5DFF87800006850F000705F
S11353F0DFF86C100860DFF864000068002803D050
S1135400DFF858000068804701BD80B5DFF8500020
S1135410006850F00060DFF848100860DFF83C00D6
S11354204068002803D0DFF834004068804701BD9D
S113543080B5DFF828008068002803D0DFF81C005E
S11354408068804701BD80B5DFF81000C06800287F
S113545003D0DFF80800C068804701BD600EFF1F5D
S113546004000C4080B51A48006840060CD5184862
S11354700068800608D5174800688047144800680B
S113548030F040001249086014480068C0070CD589
S11354900F480068800308D50F48006880470F480C
S11354A0006850F001000D4908600D48006880074D
S11354B00CD507480068800308D507480068804772
S11354C00748006850F002000549086001BD00006B
S11354D0006003409C0EFF1FA00EFF1F14600340DA
S11354E03C60034080B51648006848F21001084249
S11354F017D014480068002813D012480068804769
S11355000F48006850F480400D4908600C4800685A
S113551050F400400A4908604FF6FF700A490860D9
S11355200DE009480068002809D0064840680028B2
S113553005D004484068804704480349086001BD19
S113554000500440080FFF1F0C5004400000FFFFF0
S113555080B516480068C00709D51348006880471D
S11355601248006850F00100104908601AE00F4822
S11355700068800709D50C48406880470B480068DC
S113558050F00200094908600CE008480068400730
S113559008D50548806880470448006850F0040036
S11355A00249086001BD0000B40EFF1F14D003407F
S11355B070B4104C24680F4D2D6855F47F050D4EC2
S11355C03560090611F0706151EA0070110511F49B
S11355D070010843190411F4702108430649086056
S11355E0002000E0401CC0B29842FBD30148046094
S11355F070BC704700F001404480044010B5074976
S113560079441831064C7C44163404E00A68081DB9
S1135610511888470146A142F8D110BD0800000086
S1135620140000003FB7FFFF50040000600CFF1F90
S11356300000000080B50548006850F08000034970
S1135640086003480068804701BD00000000044072
S1135650980EFF1F00F00BF8002801D0FFF7CEFFD3
S11356600020C046C046FBF78FFF00F002F801207F
S1135670704700F001B800000746384600F002F811
S1135680FBE7000080B5C046C046024A110018205E
S1135690ABBEFBE726000200426174746572793A7E
S11356A0202531642E253032645600005370656520
S11356B0644F55543A202536640000004D6F746FD2
S11356C07250574D3A2025366400000053746565C6
S11356D07250574D3A2025366400000080B50248C8
S11356E00068804701BD0000400FFF1F4C467265F3
S11356F02025366400000000524672652025366479
S11357000000000043467265202536640000000056
S1135710537065656446423A253664002530326428
S11357202E252D3133730000C046C046C046C04606
S1075730FFF790FFEC
S90357297C
